:03000000020D8866
:0C0D8800787FE4F6D8FD758131020DCFB4
:100F5900C0F9A4B0999282F880908883C6A1C1890A
:100F6900FF9C8C10000000110C1200000000000E04
:050F7900120000000061
:100F0700012E000429418C00000227000002250061
:100F170000013104022F0064C102012D00022100EB
:090F270000C18002230000C18119
:10058900D2AFD2A9120FBA7F01120ECD120E148E5C
:10059900278F28120FD675A0FFE52E146049147015
:1005A90003020754240270F1AE2FAF307C007D1492
:1005B9001204DAD3E5269FE5259E400C120E148E0F
:1005C900278F28E4F525F52620020820A005D20268
:1005D900752D0A120FF2E52D60BFD52DBC20A003A1
:1005E900020798C20280B2AF30AE2F1209AA2002C8
:1005F9001130A00930A10630A20320A305D202754B
:100609002D0A120FF2E52D6090152DE52D708A3017
:10061900A00C30A10930A20630A30302074F20A085
:1006290008752E02C2020205A220A10BD53103755D
:100639003104C2020205A230A203020744E53124B3
:10064900FE603C14607814700302070224036003FF
:1006590002073F74102530F5307427352FF52FFE2A
:10066900AF30E4FCFD7B607AEAF9F8C31205734008
:100679000302073F74A02530F530741502073B7457
:10068900E82530F5307403352FF52FFEAF30E4FC43
:10069900FD7B607AEAF9F8C3120573AE2FAF307C9F
:1006A900037DE81204DA7C007D0A1204DAED4C605D
:1006B9000302073F74F02530F53074D880747464F0
:1006C9002530F530E4352FF52FFEAF30E4FCFD7B06
:1006D900607AEAF9F8C3120573AE2FAF307C007D5A
:1006E900641204DA7C007D0A1204DAED4C70477456
:1006F900182530F53074FC803974142530F530E450
:10070900352FF52FFEAF30E4FCFD7B607AEAF9F86E
:10071900C3120573AE2FAF307C007D0A1204DA7C58
:10072900007D0A1204DAED4C700C749C2530F5300A
:1007390074FF352FF52FC2020205A220A303020977
:1007490095C2020205A2C2020205A2AF2CAE2BADD0
:100759002AAC29120B4320021130A00930A106301E
:10076900A20320A305D202752D0A120FF2E52D70FE
:10077900030205A2152DE52D60030205A230A00C88
:1007890030A10930A20630A3030209A520A00875EB
:100799002E01C2020205A220A10BD5310375310435
:1007A900C2020205A230A203020992E53124FE60C9
:1007B900511470030208891470030208FB240360B2
:1007C9000302098DAF2CAE2BAD2AAC29E4FBFA79D3
:1007D900C878421200158F2C8E2B8D2A8C29E4FFA4
:1007E900FE7DF07C42AB2CAA2BA92AA8291202ACC7
:1007F9006002500302098DAF2CAE2BAD2AAC29E45F
:100809008075AF2CAE2BAD2AAC29E4FBFA792078A0
:10081900411200158F2C8E2B8D2A8C29E4FFFE7D29
:10082900F07C42AB2CAA2BA92AA8291202AC601C85
:10083900401AAF2CAE2BAD2AAC29E4FBFA79A0788B
:10084900411200118F2C8E2B8D2A8C29E4FBFA7909
:10085900207841AF2CAE2BAD2AAC2912020F12031E
:10086900637C007D0A12052FED4C600302098DAFF0
:100879002CAE2BAD2AAC29FBFA79C8784202098241
:10088900AF2CAE2BAD2AAC29E4FBFA7980783F1264
:1008990000158F2C8E2B8D2A8C29E4FFFE7DF07C90
:1008A90042AB2CAA2BA92AA8291202AC601A40181B
:1008B900AF2CAE2BAD2AAC29E4FBFAF9F8120011E2
:1008C9008F2C8E2B8D2A8C29AF2CAE2BAD2AAC29DF
:1008D9001203637C007D0A12052FED4C60030209A7
:1008E9008DAF2CAE2BAD2AAC29FBFA7920784102C9
:1008F9000982AF2CAE2BAD2AAC29E4FBFAF9783F7B
:100909001200158F2C8E2B8D2A8C29E4FFFE7DF089
:100919007C42AB2CAA2BA92AA8291202AC601C4044
:100929001AAF2CAE2BAD2AAC29E4FBFA7980783FBB
:100939001200118F2C8E2B8D2A8C29AF2CAE2BAD4A
:100949002AAC29120363AD07AC06EC12032AA804EA
:10095900A905AA06AB07AF2CAE2BAD2AAC2912000C
:1009690011E4FBFAF9F81202AC7019AF2CAE2BADF9
:100979002AAC29FBFA7980783F1200118F2C8E2B33
:100989008D2A8C29C2020205A220A30BE4F52E753B
:100999003104C2020205A2C2020205A2C202020574
:0109A900A2AB
:040CB9008E138F14F3
:100CBD0078157C007D007BFF7A0F796C7E007F06B6
:100CCD001204B4AC13AD14EC12032AE4FBFA792030
:100CDD00784112020F8F1E8E1D8D1C8C1BE4FA7B2A
:100CED0004E51445136027AE13AF147C007D0A1282
:100CFD00052F74142BF8A605AE13AF147C007D0AD6
:100D0D0012052F8E138F14EB1B70D61A80D3E51599
:100D1D00900F5993FDE4FF120F31E516900F599383
:100D2D00FD7F01120F31E517900F5993547FFD7F11
:100D3D0002120F31E518900F5993FD7F03120F31F9
:100D4D00E519900F5993FD7F04120F31E51A900F9D
:100D5D005993FD7F05120F31AF2CAE2BAD2AAC2967
:100D6D00AB1EAA1DA91CA81B1202AC600D400B9056
:0A0D7D000F68E493FD7F07120F31A9
:010D87002249
:0409AA008E088F091B
:1009AE00780A7C007D007BFF7A0F79727E007F06CD
:1009BE001204B47B053000120522E52270020521D7
:1009CE00641E45217013C200800FE52215227002AD
:1009DE0015211445217002D200EB6023AE08AF0939
:1009EE007C007D0A1204DA740A2BF8A605AE08AF55
:1009FE00097C007D0A1204DA8E088F091B80DAE565
:100A0E000A900F5993FD7F01120F31E53124FE60DC
:100A1E003614605F147003020AB9147003020AFDE3
:100A2E0024046003020B42300007E50B900F59803F
:100A3E0004900F69E493FD7F02120F31E50C900FC5
:100A4E005993FD7F03801E300007E50C900F5980EF
:100A5E0004900F69E493FD7F03120F31E50B900FA5
:100A6E005993FD7F02120F31E50D900F5993FD7FC3
:100A7E0004802A300007E50D900F598004900F690D
:100A8E00E493FD7F04120F31E50C900F5993FD7F17
:100A9E0003120F31E50B900F5993FD7F02120F31A8
:100AAE00E50E900F5993FD7F058036300007E50E59
:100ABE00900F598004900F69E493FD7F05120F315A
:100ACE00E50C900F5993FD7F03120F31E50D900F3A
:100ADE005993FD7F04120F31E50B900F5993FD7F53
:100AEE0002120F31E50F900F5993FD7F06804230B1
:100AFE000007E50F900F598004900F69E493FD7F76
:100B0E0006120F31E50C900F5993FD7F03120F3132
:100B1E00E50D900F5993FD7F04120F31E50E900FE6
:100B2E005993FD7F05120F31E50B900F5993FD7F01
:040B3E0002120F315F
:010B42002290
:080B43008F0B8E0A8D098C084E
:100B4B00780C7C007D007BFF7A0F79787E007F0626
:100B5B001204B4751205E4FFFE7D207C41AB0BAA99
:100B6B000AA909A808120106120363AB07AA0630EB
:100B7B0001120524E52470020523641E452370131E
:100B8B00C201800FE5241524700215231445237030
:100B9B0002D201EB4A60257C007D0AAF03AE021244
:100BAB00052F740C2512F8A6057C007D0AAF03AE49
:100BBB000212052FAA06AB07151280D7E50C900F72
:100BCB005993FDE4FF120F31E50D900F5993FD7F03
:100BDB0001120F31E53124FE603014605B14700399
:100BEB00020C7D24036003020CB8300107E50E9064
:100BFB000F598004900F69E493FD7F02120F31E5CA
:100C0B000F900F5993FD7F03801E300107E50F9066
:100C1B000F598004900F69E493FD7F03120F31E5A8
:100C2B000E900F5993FD7F02120F31E510900F5963
:100C3B0093547FFD7F04802C300107E510900F59F2
:100C4B008004900F69E493547FFD7F04120F31E50C
:100C5B000F900F5993FD7F03120F31E50E900F5933
:100C6B0093FD7F02120F31E511900F5993FD7F0514
:100C7B008038300107E511900F598004900F69E41B
:100C8B0093FD7F05120F31E50F900F5993FD7F03F5
:100C9B00120F31E510900F5993547FFD7F04120F03
:0D0CAB0031E50E900F5993FD7F02120F31BD
:010CB8002219
:100FD6005389F0438901758AE0758CB1C28DD28C34
:010FE60022E8
:03000B00020E7C66
:100E7C00C0E0C0F0C083C082C0D075D000C000C03C
:100E8C0001C002C003C004C005C006C007758AE0DB
:100E9C00758CB1E52E7007AF28AE27120CB905265C
:100EAC00E52670020525D007D006D005D004D00366
:100EBC00D002D001D000D0D0D082D083D0F0D0E0FE
:010ECC0032F3
:080FF2007F027E2DDEFEDFFC14
:010FFA0022D4
:100F31007401A807088002C333D8FCF590D281C29E
:100F4100818D90D280C280120FF2120FF2120FF235
:080F51007590FFD280C28022DE
:0B0FE700AE071FEE6004000080F62241
:100FBA00D203C2B67F30120FE7D2B67F05120FE70F
:0B0FCA00A2B692037F2B120FE7A203D8
:010FD50022F9
:020F9D00AD079E
:100F9F00E4FBC2B60000ED1392B67F06120FE7D244
:0A0FAF00B600EDC313FD0BBB08E80C
:010FB9002215
:100F7E00E4FDFCECC313FCC2B60000D2B630B603DF
:0E0F8E004304807F06120FE70DBD08E7AF0495
:010F9C002232
:100ECD00AC07120FBA7FCC120F9D7F4E120F9D7F74
:100EDD00A0120F9DE4FF120F9DEC24FE600E146016
:100EED000F1460102403700C7F1F800A7F3F800653
:0A0EFD007F5F80027F7F120F9D22AD
:100E1400900000120FBA7FCC120F9D7F44120F9DD9
:100E2400120FBA7FCC120F9D7FBE120F9D120F7E40
:100E3400AB07120F7EEF4282E582758200F583AF25
:100E440003EFF582AD82AC83EC12032AE4FBFA795A
:100E540080783D1201068F0B8E0A8D098C08E4FF01
:100E6400FE7D207C41AB0BAA0AA909A80812010641
:070E74001203638E838F82DD
:010E7B002254
:10000E000203CFE86480F8E933E83360110460F04E
:10001E00ED33EC337009E8FCE9FDEAFEEBFF220458
:10002E0060DED3EB9FEA9EE99DE8C2E78CF0C2F753
:10003E0095F0400CE8CCF8E9CDF9EACEFAEBCFFB1F
:10004E0012039A85D0F05804700320D5B3E80470DB
:10005E00075002B2D50203D992D5EC0460F7E4CC76
:10006E00C0E0C398F8603B94186008400DD0E0FBE8
:10007E000203B1E4FBFAC9FC8028E830E406E4C9C7
:10008E00FBE4CAFCE830E305E4C9CACBFCE854073C
:10009E006010F8C3E913F9EA13FAEB13FBEC13FC47
:1000AE00D8F130F52FC3E49CFCEF9BFFEE9AFEEDEA
:1000BE0099FDD0E0FBEF4E4D4C701222DB03020394
:1000CE00D6EC2CFCEF33FFEE33FEED33FDED30E7D7
:1000DE00EB0203B1EF2BFFEE3AFEED39FDD0E0FB64
:1000EE0050130BBB00030203D9ED13FDEE13FEEF0D
:0800FE0013FFEC13FC0203B137
:10010600EC4D6011E8497017ED33EC3304600DE4F3
:10011600FCFFFEFD22E933E8330470F80203CF1238
:10012600039A58046009E4CC248150062850090239
:1001360003D92840030203D6C0E0EB4A7044B980D5
:1001460006D0E0FB0203C5EF4E701CBD8008EBFF36
:10015600EAFEE9FD80EBE98DF0A4FEE5F00201EF91
:10016600E9CDF9EAFEEBFFEF89F0A4FCE5F0CE89D4
:10017600F0A42EFFE435F0CD89F0A42DFEE435F091
:100186008067EF4E7005BD80D780C3EF8BF0A4ACBF
:10019600F0EE8BF0A42CFCE435F0F8EF8AF0A42CFA
:1001A600E5F038FCE433CB8DF0A42CFCE5F03BF80D
:1001B600EE8AF0A42CFCE5F038F8E433CF89F0A4FD
:1001C6002CFCE5F038CF3400CE89F0A42FFFE5F003
:1001D6003EFEE433C98DF0A42EFEE5F039CD8AF05B
:1001E600A42FFFE5F03EFEE43DFD33D0E0FB5007D3
:1001F6000BBB000F0203D9EC2CFCEF33FFEE33FEF2
:06020600ED33FD0203B11F
:10020C000203D9EC5D046005E8590470030203CFC6
:10021C0012039A580460F6EC4860F2EC7004FDFE90
:10022C00FF22C860DB2481C85009C39860025006C5
:10023C000203D69850CAF582E9294B4A7005AB8265
:10024C000203C575F0007C1A7880C3EF9BEE9AED23
:10025C0099400DC3EF9BFFEE9AFEED99FDE842F03D
:10026C00DC23ACF0D0E0FFD0E0FED0E0FDAB822090
:10027C00E7101BEB60BAEC2CFCEF33FFEE33FEED1A
:10028C0033FD0203B1E803F830E705C0F075F00068
:10029C00EF2FFFEE33FEED33FD40B830E7C280AAFE
:1002AC0074F8CC6480CCC86480C8F58204604FC3F9
:1002BC00EB9FF5F0EA9E42F0E99D42F0E89C45F098
:1002CC00603C501DE5825FFFE582D313CB5BCBF422
:1002DC002B5582FB50280ABA002409B9002008804B
:1002EC001DE5825BFBE582D313CF5FCFF4C3132FE5
:1002FC005582FF50090EBE00050DBD00010CC3EB6D
:10030C009FF5F0EA9E42F0E99D42F0E89C45F060D2
:09031C0007CC4820E701B3EC22F4
:1003250075F020800E75F010800575F0087D007E53
:10033500007F003392D530D503120565EC334010AC
:10034500EF33FFEE33FEED33FDEC33FCD5F0ED225C
:0E035500E5F0247EA2D513CC92E7CDCEFF2298
:10036300EDD2E7CD33EC3392D524814006E4FFFE92
:10037300FDFC22FCE4CFCECDCC24E0501174FF80F1
:10038300EDC3CC13CCCD13CDCE13CECF13CF04708E
:07039300F030D5DE02056524
:10039A00E9D2E7C933E833F892D5EDD2E7CD33ECA9
:0703AA0033FC5002B2D52222
:1003B100EC30E7100FBF000C0EBE00080DBD0004AD
:1003C1000BEB6014A2D5EB13FCED92E7FD2274FF59
:1003D100FCFDFEFF22E480F8A2D574FF13FC7D80B2
:0303E100E480EFC6
:100D9400020589E493A3F8E493A34003F68001F2E7
:100DA40008DFF48029E493A3F85407240CC8C33360
:100DB400C4540F4420C8834004F456800146F6DF2F
:100DC400E4800B0102040810204080900F07E47EA9
:100DD400019360BCA3FF543F30E509541FFEE49324
:100DE400A360010ECF54C025E060A840B8E493A3EB
:100DF400FAE493A3F8E493A3C8C582C8CAC583CA16
:100E0400F0A3C8C582C8CAC583CADFE9DEE780BECD
:010F300000C0
:1003E400E709F608DFFA8046E709F208DFFA803EFB
:1003F40088828C83E709F0A3DFFA8032E309F608E8
:10040400DFFA8078E309F208DFFA807088828C834F
:10041400E309F0A3DFFA806489828A83E0A3F60803
:10042400DFFA805889828A83E0A3F208DFFA804CDD
:1004340080D280FA80C680D4806980F280338010B4
:1004440080A680EA809A80A880DA80E280CA80331D
:1004540089828A83ECFAE493A3C8C582C8CCC58395
:10046400CCF0A3C8C582C8CCC583CCDFE9DEE78065
:100474000D89828A83E493A3F608DFF9ECFAA9F0E4
:10048400EDFB2289828A83ECFAE0A3C8C582C8CC3A
:10049400C583CCF0A3C8C582C8CCC583CCDFEADE53
:1004A400E880DB89828A83E493A3F208DFF980CCB5
:1004B40088F0EF60010E4E60C388F0ED2402B404AE
:1004C4000050B9F582EB2402B4040050AF23234555
:0604D40082239004347342
:1004DA00BC000BBE0029EF8DF084FFADF022E4CC06
:1004EA00F875F008EF2FFFEE33FEEC33FCEE9DECCF
:1004FA00984005FCEE9DFE0FD5F0E9E4CEFD22ED15
:10050A00F8F5F0EE8420D21CFEADF075F008EF2F5E
:10051A00FFED33FD4007985006D5F0F222C398FD4F
:05052A000FD5F0EA22EC
:10052F00C2D5EC30E709B2D5E4C39DFDE49CFCEEE7
:10053F0030E715B2D5E4C39FFFE49EFE1204DAC381
:10054F00E49DFDE49CFC80031204DA30D507C3E47C
:06055F009FFFE49EFE2256
:0E056500C3E49FFFE49EFEE49DFDE49CFC22A7
:10057300EB9FF5F0EA9E42F0E99D42F0EC6480C8FF
:0605830064809845F0229F
:00000001FF
