:03000000020DB13D
:0C0DB100787FE4F6D8FD758131020DF862
:100F8200C0F9A4B0999282F880908883C6A1C189E1
:100F9200FF9C8C10000000110C1200000000000EDB
:050FA200120000000038
:100F3000012E000429418C00000227000002250038
:100F400000013104022F0064C102012D00022100C2
:090F500000C18002230000C181F0
:10058900D2AFD2A9120FE37F01120EF6120E3D8EE1
:10059900278F28120FFF75A0FFE52E14700302069E
:1005A9003B1470030207A5240270EEAE2FAF307C16
:1005B900007D141204DAD3E5269FE5259E404A12F0
:1005C9000E3D8E278F28E4F525F526FFFE7D207C3C
:1005D90041AB2CAA2BA92AA829120106C004C005DF
:1005E900C006C007AC27AD28EC12032AA804A90548
:1005F900AA06AB07D007D006D005D0041202AC601A
:10060900064004C2B48002D2B420020820A005D258
:1006190002752D0A12101BE52D70030205A2152D76
:10062900E52D60030205A220A0030207E9C2020228
:1006390005A2AF30AE2F1209FB20021130A00930FC
:10064900A10630A20320A305D202752D0A12101BA0
:10065900E52D70030205A2152DE52D60030205A203
:1006690030A00C30A10930A20630A3030207A02054
:10067900A008752E02C2020205A220A10BD53103E2
:10068900753104C2020205A230A203020795E531C1
:1006990024FE603C1460781470030207532403603D
:1006A9000302079074102530F5307427352FF52F84
:1006B900FEAF30E4FCFD7B607AEAF9F8C3120573FA
:1006C900400302079074A02530F530741502078C99
:1006D90074E82530F5307403352FF52FFEAF30E47B
:1006E900FCFD7B607AEAF9F8C3120573AE2FAF30CF
:1006F9007C037DE81204DA7C007D0A1204DAED4CF1
:10070900600302079074F02530F53074D880747452
:10071900642530F530E4352FF52FFEAF30E4FCFDCC
:100729007B607AEAF9F8C3120573AE2FAF307C000B
:100739007D641204DA7C007D0A1204DAED4C7047FC
:1007490074182530F53074FC803974142530F5306F
:10075900E4352FF52FFEAF30E4FCFD7B607AEAF932
:10076900F8C3120573AE2FAF307C007D0A1204DA8C
:100779007C007D0A1204DAED4C700C749C2530F56E
:100789003074FF352FF52FC2020205A220A3030200
:1007990009E6C2020205A2C2020205A2AF2CAE2BD3
:1007A900AD2AAC29120B9420021130A00930A10600
:1007B90030A20320A305D202752D0A12101BE52DC4
:1007C90070030205A2152DE52D60030205A230A0D4
:1007D9000C30A10930A20630A3030209F620A008B3
:1007E900752E01C2020205A220A10BD53103753174
:1007F90004C2020205A230A2030209E3E53124FE84
:1008090060511470030208DA14700302094C2403BE
:1008190060030209DEAF2CAE2BAD2AAC29E4FBFA4A
:1008290079C878421200158F2C8E2B8D2A8C29E4D9
:10083900FFFE7DF07C42AB2CAA2BA92AA829120223
:10084900AC600250030209DEAF2CAE2BAD2AAC29F5
:10085900E48075AF2CAE2BAD2AAC29E4FBFA7920E4
:1008690078411200158F2C8E2B8D2A8C29E4FFFEDE
:100879007DF07C42AB2CAA2BA92AA8291202AC60D4
:100889001C401AAF2CAE2BAD2AAC29E4FBFA79A097
:1008990078411200118F2C8E2B8D2A8C29E4FBFABA
:1008A90079207841AF2CAE2BAD2AAC2912020F1258
:1008B90003637C007D0A12052FED4C60030209DEFB
:1008C900AF2CAE2BAD2AAC29FBFA79C878420209C4
:1008D900D3AF2CAE2BAD2AAC29E4FBFA7980783F53
:1008E9001200158F2C8E2B8D2A8C29E4FFFE7DF0AA
:1008F9007C42AB2CAA2BA92AA8291202AC601A4067
:1009090018AF2CAE2BAD2AAC29E4FBFAF9F812008A
:10091900118F2C8E2B8D2A8C29AF2CAE2BAD2AACA6
:10092900291203637C007D0A12052FED4C60030236
:1009390009DEAF2CAE2BAD2AAC29FBFA7920784120
:100949000209D3AF2CAE2BAD2AAC29E4FBFAF97816
:100959003F1200158F2C8E2B8D2A8C29E4FFFE7DEA
:10096900F07C42AB2CAA2BA92AA8291202AC601C44
:10097900401AAF2CAE2BAD2AAC29E4FBFA7980786A
:100989003F1200118F2C8E2B8D2A8C29AF2CAE2B68
:10099900AD2AAC29120363AD07AC06EC12032AA8F1
:1009A90004A905AA06AB07AF2CAE2BAD2AAC2912B8
:1009B9000011E4FBFAF9F81202AC7019AF2CAE2B56
:1009C900AD2AAC29FBFA7980783F1200118F2C8E61
:1009D9002B8D2A8C29C2020205A220A30BE4F52E35
:1009E900753104C2020205A2C2020205A2C20202B4
:0209F90005A255
:040D1F008E138F148C
:100D230078157C007D007BFF7A0F79957E007F0626
:100D33001204B4E4FA7B04E51445136027AE13AF41
:100D4300147C007D0A12052F74142BF8A605AE132C
:100D5300AF147C007D0A12052F8E138F14EB1B70CA
:100D6300D61A80D3E515900F8293FDE4FF120F5A34
:100D7300E516900F8293FD7F01120F5AE517900F2E
:100D83008293547FFD7F02120F5AE518900F8293CE
:100D9300FD7F03120F5AE519900F8293FD7F041212
:0E0DA3000F5AE51A900F8293FD7F05020F5A3A
:0409FB008E088F09CA
:1009FF00780A7C007D007BFF7A0F799B7E007F0653
:100A0F001204B47B053000120522E5227002052185
:100A1F00641E45217013C200800FE522152270025B
:100A2F0015211445217002D200EB6023AE08AF09E7
:100A3F007C007D0A1204DA740A2BF8A605AE08AF03
:100A4F00097C007D0A1204DA8E088F091B80DAE513
:100A5F000A900F8293FD7F01120F5AE53124FE6039
:100A6F003614605F147003020B0A147003020B4EEE
:100A7F0024046003020B93300007E50B900F828074
:100A8F0004900F92E493FD7F02120F5AE50C900F22
:100A9F008293FD7F03801E300007E50C900F82804C
:100AAF0004900F92E493FD7F03120F5AE50B900F02
:100ABF008293FD7F02120F5AE50D900F8293FD7FF7
:100ACF0004802A300007E50D900F828004900F926A
:100ADF00E493FD7F04120F5AE50C900F8293FD7F74
:100AEF0003120F5AE50B900F8293FD7F02120F5ADC
:100AFF00E50E900F8293FD7F058036300007E50EDF
:100B0F00900F828004900F92E493FD7F05120F5A8D
:100B1F00E50C900F8293FD7F03120F5AE50D900F96
:100B2F008293FD7F04120F5AE50B900F8293FD7F86
:100B3F0002120F5AE50F900F8293FD7F068042300D
:100B4F000007E50F900F828004900F92E493FD7FD2
:100B5F0006120F5AE50C900F8293FD7F03120F5A66
:100B6F00E50D900F8293FD7F04120F5AE50E900F43
:100B7F008293FD7F05120F5AE50B900F8293FD7F35
:040B8F0002120F5AE5
:010B9300223F
:080B94008F0B8E0A8D098C08FD
:100B9C00780C7C007D007BFF7A0F79A17E007F06AC
:100BAC001204B4751205E4FFFE7D207C41AB0BAA48
:100BBC000AA909A808120106120363AB07AA06309A
:100BCC0001120524E52470020523641E45237013CD
:100BDC00C201800FE52415247002152314452370DF
:100BEC0002D201EB4A60257C007D0AAF03AE0212F3
:100BFC00052F740C2512F8A6057C007D0AAF03AEF8
:100C0C000212052FAA06AB07151280D7E50C900F20
:100C1C008293FDE4FF120F5AE50D900F8293FD7F36
:100C2C0001120F5AE53124FE603014605B1470031E
:100C3C00020CCE24036003020D09300107E50E906F
:100C4C000F828004900F92E493FD7F02120F5AE5FD
:100C5C000F900F8293FD7F03801E300107E50F90EC
:100C6C000F828004900F92E493FD7F03120F5AE5DC
:100C7C000E900F8293FD7F02120F5AE510900F8297
:100C8C0093547FFD7F04802C300107E510900F8278
:100C9C008004900F92E493547FFD7F04120F5AE569
:100CAC000F900F8293FD7F03120F5AE50E900F8267
:100CBC0093FD7F02120F5AE511900F8293FD7F0571
:100CCC008038300107E511900F828004900F92E478
:100CDC0093FD7F05120F5AE50F900F8293FD7F0352
:100CEC00120F5AE510900F8293547FFD7F04120F60
:100CFC005AE50E900F8293FD7F02120F5A900F93BC
:100D0C00E493FD7F06120F5A900F8EE493FD7F073C
:030D1C00020F5A69
:100FFF005389F0438901758AE0758CB1C28DD28C0B
:01100F0022BE
:03000B00020EA53D
:100EA500C0E0C0F0C083C082C0D075D000C000C013
:100EB50001C002C003C004C005C006C007758AE0B2
:100EC500758CB1E52E7007AF28AE27120D1F0526CC
:100ED500E52670020525D007D006D005D004D0033D
:100EE500D002D001D000D0D0D082D083D0F0D0E0D5
:010EF50032CA
:08101B007F027E2DDEFEDFFCEA
:0110230022AA
:100F5A007401A807088002C333D8FCF590D281C275
:100F6A00818D90D280C28012101B12101B12101B8E
:080F7A007590FFD280C28022B5
:0B101000AE071FEE6004000080F62217
:100FE300D203C2B67F30121010D2B67F0512101092
:0B0FF300A2B692037F2B121010A20385
:010FFE0022D0
:020FC600AD0775
:100FC800E4FBC2B60000ED1392B67F06121010D2F1
:0A0FD800B600EDC313FD0BBB08E8E3
:010FE20022EC
:100FA700E4FDFCECC313FCC2B60000D2B630B603B6
:0E0FB7004304807F061210100DBD08E7AF0442
:010FC5002209
:100EF600AC07120FE37FCC120FC67F4E120FC67FD0
:100F0600A0120FC6E4FF120FC6EC24FE600E14609A
:100F16000F1460102403700C7F1F800A7F3F800629
:0A0F26007F5F80027F7F120FC6225A
:100E3D00900000120FE37FCC120FC67F44120FC635
:100E4D00120FE37FCC120FC67FBE120FC6120FA773
:100E5D00AB07120FA7EF4282E582758200F583AFD3
:100E6D0003EFF582AD82AC83EC12032AE4FBFA7931
:100E7D0080783D1201068F0B8E0A8D098C08E4FFD8
:100E8D00FE7D207C41AB0BAA0AA909A80812010618
:070E9D001203638E838F82B4
:010EA400222B
:10000E000203CFE86480F8E933E83360110460F04E
:10001E00ED33EC337009E8FCE9FDEAFEEBFF220458
:10002E0060DED3EB9FEA9EE99DE8C2E78CF0C2F753
:10003E0095F0400CE8CCF8E9CDF9EACEFAEBCFFB1F
:10004E0012039A85D0F05804700320D5B3E80470DB
:10005E00075002B2D50203D992D5EC0460F7E4CC76
:10006E00C0E0C398F8603B94186008400DD0E0FBE8
:10007E000203B1E4FBFAC9FC8028E830E406E4C9C7
:10008E00FBE4CAFCE830E305E4C9CACBFCE854073C
:10009E006010F8C3E913F9EA13FAEB13FBEC13FC47
:1000AE00D8F130F52FC3E49CFCEF9BFFEE9AFEEDEA
:1000BE0099FDD0E0FBEF4E4D4C701222DB03020394
:1000CE00D6EC2CFCEF33FFEE33FEED33FDED30E7D7
:1000DE00EB0203B1EF2BFFEE3AFEED39FDD0E0FB64
:1000EE0050130BBB00030203D9ED13FDEE13FEEF0D
:0800FE0013FFEC13FC0203B137
:10010600EC4D6011E8497017ED33EC3304600DE4F3
:10011600FCFFFEFD22E933E8330470F80203CF1238
:10012600039A58046009E4CC248150062850090239
:1001360003D92840030203D6C0E0EB4A7044B980D5
:1001460006D0E0FB0203C5EF4E701CBD8008EBFF36
:10015600EAFEE9FD80EBE98DF0A4FEE5F00201EF91
:10016600E9CDF9EAFEEBFFEF89F0A4FCE5F0CE89D4
:10017600F0A42EFFE435F0CD89F0A42DFEE435F091
:100186008067EF4E7005BD80D780C3EF8BF0A4ACBF
:10019600F0EE8BF0A42CFCE435F0F8EF8AF0A42CFA
:1001A600E5F038FCE433CB8DF0A42CFCE5F03BF80D
:1001B600EE8AF0A42CFCE5F038F8E433CF89F0A4FD
:1001C6002CFCE5F038CF3400CE89F0A42FFFE5F003
:1001D6003EFEE433C98DF0A42EFEE5F039CD8AF05B
:1001E600A42FFFE5F03EFEE43DFD33D0E0FB5007D3
:1001F6000BBB000F0203D9EC2CFCEF33FFEE33FEF2
:06020600ED33FD0203B11F
:10020C000203D9EC5D046005E8590470030203CFC6
:10021C0012039A580460F6EC4860F2EC7004FDFE90
:10022C00FF22C860DB2481C85009C39860025006C5
:10023C000203D69850CAF582E9294B4A7005AB8265
:10024C000203C575F0007C1A7880C3EF9BEE9AED23
:10025C0099400DC3EF9BFFEE9AFEED99FDE842F03D
:10026C00DC23ACF0D0E0FFD0E0FED0E0FDAB822090
:10027C00E7101BEB60BAEC2CFCEF33FFEE33FEED1A
:10028C0033FD0203B1E803F830E705C0F075F00068
:10029C00EF2FFFEE33FEED33FD40B830E7C280AAFE
:1002AC0074F8CC6480CCC86480C8F58204604FC3F9
:1002BC00EB9FF5F0EA9E42F0E99D42F0E89C45F098
:1002CC00603C501DE5825FFFE582D313CB5BCBF422
:1002DC002B5582FB50280ABA002409B9002008804B
:1002EC001DE5825BFBE582D313CF5FCFF4C3132FE5
:1002FC005582FF50090EBE00050DBD00010CC3EB6D
:10030C009FF5F0EA9E42F0E99D42F0E89C45F060D2
:09031C0007CC4820E701B3EC22F4
:1003250075F020800E75F010800575F0087D007E53
:10033500007F003392D530D503120565EC334010AC
:10034500EF33FFEE33FEED33FDEC33FCD5F0ED225C
:0E035500E5F0247EA2D513CC92E7CDCEFF2298
:10036300EDD2E7CD33EC3392D524814006E4FFFE92
:10037300FDFC22FCE4CFCECDCC24E0501174FF80F1
:10038300EDC3CC13CCCD13CDCE13CECF13CF04708E
:07039300F030D5DE02056524
:10039A00E9D2E7C933E833F892D5EDD2E7CD33ECA9
:0703AA0033FC5002B2D52222
:1003B100EC30E7100FBF000C0EBE00080DBD0004AD
:1003C1000BEB6014A2D5EB13FCED92E7FD2274FF59
:1003D100FCFDFEFF22E480F8A2D574FF13FC7D80B2
:0303E100E480EFC6
:100DBD00020589E493A3F8E493A34003F68001F2BE
:100DCD0008DFF48029E493A3F85407240CC8C33337
:100DDD00C4540F4420C8834004F456800146F6DF06
:100DED00E4800B0102040810204080900F30E47E57
:100DFD00019360BCA3FF543F30E509541FFEE493FB
:100E0D00A360010ECF54C025E060A840B8E493A3C1
:100E1D00FAE493A3F8E493A3C8C582C8CAC583CAEC
:100E2D00F0A3C8C582C8CAC583CADFE9DEE780BEA4
:010F59000097
:1003E400E709F608DFFA8046E709F208DFFA803EFB
:1003F40088828C83E709F0A3DFFA8032E309F608E8
:10040400DFFA8078E309F208DFFA807088828C834F
:10041400E309F0A3DFFA806489828A83E0A3F60803
:10042400DFFA805889828A83E0A3F208DFFA804CDD
:1004340080D280FA80C680D4806980F280338010B4
:1004440080A680EA809A80A880DA80E280CA80331D
:1004540089828A83ECFAE493A3C8C582C8CCC58395
:10046400CCF0A3C8C582C8CCC583CCDFE9DEE78065
:100474000D89828A83E493A3F608DFF9ECFAA9F0E4
:10048400EDFB2289828A83ECFAE0A3C8C582C8CC3A
:10049400C583CCF0A3C8C582C8CCC583CCDFEADE53
:1004A400E880DB89828A83E493A3F208DFF980CCB5
:1004B40088F0EF60010E4E60C388F0ED2402B404AE
:1004C4000050B9F582EB2402B4040050AF23234555
:0604D40082239004347342
:1004DA00BC000BBE0029EF8DF084FFADF022E4CC06
:1004EA00F875F008EF2FFFEE33FEEC33FCEE9DECCF
:1004FA00984005FCEE9DFE0FD5F0E9E4CEFD22ED15
:10050A00F8F5F0EE8420D21CFEADF075F008EF2F5E
:10051A00FFED33FD4007985006D5F0F222C398FD4F
:05052A000FD5F0EA22EC
:10052F00C2D5EC30E709B2D5E4C39DFDE49CFCEEE7
:10053F0030E715B2D5E4C39FFFE49EFE1204DAC381
:10054F00E49DFDE49CFC80031204DA30D507C3E47C
:06055F009FFFE49EFE2256
:0E056500C3E49FFFE49EFEE49DFDE49CFC22A7
:10057300EB9FF5F0EA9E42F0E99D42F0EC6480C8FF
:0605830064809845F0229F
:00000001FF
