:0300000002057F77
:0C057F00787FE4F6D8FD7581200205C6E7
:10072300C0F9A4B0999282F880908883C6A1868E7E
:0F073300FF9C8C00000000110C00000000000073
:10079A00011D00021A000002180000021E00BEC15C
:0407AA0000011C002E
:10037800D2AFD2A912077E7F021206C412060B8ED4
:100388001A8F1B1207AF75A0FFE51D1460250470B6
:1003980029AE1EAF1F7C007D141202C9D3E5199F38
:1003A800E5189E401512060B8E1A8F1BE4F518F5FA
:1003B800198007AF1FAE1E12045920001130A00982
:1003C80030A10630A20320A305D200751C0A12072B
:1003D800C8E51C60B4D51CB130A00930A10630A214
:1003E8000320A36820A007751D01C200809B20A1DF
:1003F8002AE51DB40120051FE51F7002051EAE1E6B
:10040800FFE4FCFD7BFA7AFFF9F8C3120362500699
:10041800751EFF751FFAC20002039120A223E51D75
:10042800B40119E51F151F7002151EC3E51F94BE00
:10043800E51E94005006751E00751FBEC20002031B
:100448009120A303E4F51DC200020391C200020338
:010458009112
:0404ED008E108F11CD
:1004F10078127C007D007BFF7A0779367E007F06CB
:100501001202A3E4FA7B04E51145106027AE10AF97
:10051100117C007D0A12031E74112BF8A605AE1082
:10052100AF117C007D0A12031E8E108F11EB1B7020
:10053100D61A80D3E51290072393FD7F011206FEA0
:10054100E51390072393547FFD7F021206FEE51405
:1005510090072393FD7F031206FEE5159007239371
:10056100FD7F041206FEE51690072393FD7F051219
:0E05710006FEE51790072393FD7F060206FEA7
:040459008E088F0971
:10045D00780A7C007D007BFF7A07793C7E007F0661
:10046D001202A37B05750A12AE08AF097C007D0A46
:10047D001202C9740A2BF8A605AE08AF097C007DDF
:10048D000A1202C98E088F09DBDEE50B7003750BAE
:10049D0010E50C7003750C10E50A90072393FD7F92
:1004AD00011206FEE50B90072393FD7F021206FE57
:1004BD00E50C90072393FD7F031206FEE50D9007D3
:1004CD002393FD7F041206FEE50E90072393FD7F17
:1004DD00051206FEE50F90072393FD7F060206FE2B
:0E07AF007589F1758AE0758CB1C28DD28C22ED
:03000B0002067377
:10067300C0E0C0F0C083C082C0D075D000C000C04D
:1006830001C002C003C004C005C006C007758AE0EC
:10069300758CB1E51D7007AF1BAE1A1204ED051979
:1006A300E51970020518D007D006D005D004D00391
:1006B300D002D001D000D0D0D082D083D0F0D0E00F
:0106C3003204
:0807C8007F027E27DEFEDFFC4C
:0107D0002206
:1006FE007401A807088002C333D8FCF590D281C2DA
:10070E00818D90D280C2801207C81207C87590FFE3
:05071E00D280C2802220
:0B07BD00AE071FEE6004000080F62273
:10077E00D201C2B67F301207BDD2B67F051207BDB9
:0B078E00A2B692017F2B1207BDA20152
:01079900223D
:02076100AD07E2
:10076300E4FBC2B60000ED1392B67F061207BDD2BA
:0A077300B600EDC313FD0BBB08E850
:01077D002259
:10074200E4FDFCECC313FCC2B60000D2B630B60323
:0E0752004304807F061207BD0DBD08E7AF040B
:010760002276
:1006C400AC0712077E7FCC1207617F4E1207617F51
:1006D40063120761E4FF120761EC24FE600E1460EC
:1006E4000F1460102403700C7F1F800A7F3F800664
:0A06F4007F5F80027F7F1207612202
:10060B0090000012077E7FCC1207617F44120761B6
:10061B0012077E7FCC1207617FBE12076112074261
:10062B00AB07120742EF4282E582758200F583AF7A
:10063B0003EFF582AD82AC83EC120119E4FBFA797E
:10064B0080783D12000E8F0B8E0A8D098C08E4FF0B
:10065B00FE7DC87C42AB0BAA0AA909A80812000EA2
:07066B001201528E838F8201
:010672002265
:10000E00EC4D6011E8497017ED33EC3304600DE4EC
:10001E00FCFFFEFD22E933E8330470F80201BE1244
:10002E00018958046009E4CC248150062850090245
:10003E0001C82840030201C5C0E0EB4A7044B980F4
:10004E0006D0E0FB0201B4EF4E701CBD8008EBFF42
:10005E00EAFEE9FD80EBE98DF0A4FEE5F00200F783
:10006E00E9CDF9EAFEEBFFEF89F0A4FCE5F0CE89CD
:10007E00F0A42EFFE435F0CD89F0A42DFEE435F08A
:10008E008067EF4E7005BD80D780C3EF8BF0A4ACB8
:10009E00F0EE8BF0A42CFCE435F0F8EF8AF0A42CF3
:1000AE00E5F038FCE433CB8DF0A42CFCE5F03BF806
:1000BE00EE8AF0A42CFCE5F038F8E433CF89F0A4F6
:1000CE002CFCE5F038CF3400CE89F0A42FFFE5F0FC
:1000DE003EFEE433C98DF0A42EFEE5F039CD8AF054
:1000EE00A42FFFE5F03EFEE43DFD33D0E0FB5007CC
:1000FE000BBB000F0201C8EC2CFCEF33FFEE33FEFE
:06010E00ED33FD0201A02B
:1001140075F020800E75F010800575F0087D007E66
:10012400007F003392D530D503120354EC334010D2
:10013400EF33FFEE33FEED33FDEC33FCD5F0ED226F
:0E014400E5F0247EA2D513CC92E7CDCEFF22AB
:10015200EDD2E7CD33EC3392D524814006E4FFFEA5
:10016200FDFC22FCE4CFCECDCC24E0501174FF8004
:10017200EDC3CC13CCCD13CDCE13CECF13CF0470A1
:07018200F030D5DE0203544A
:10018900E9D2E7C933E833F892D5EDD2E7CD33ECBC
:0701990033FC5002B2D52235
:1001A000EC30E7100FBF000C0EBE00080DBD0004C0
:1001B0000BEB6014A2D5EB13FCED92E7FD2274FF6C
:1001C000FCFDFEFF22E480F8A2D574FF13FC7D80C5
:0301D000E480EFD9
:10058B00020378E493A3F8E493A34003F68001F20B
:10059B0008DFF48029E493A3F85407240CC8C33371
:1005AB00C4540F4420C8834004F456800146F6DF40
:1005BB00E4800B010204081020408090079AE47E2F
:1005CB00019360BCA3FF543F30E509541FFEE49335
:1005DB00A360010ECF54C025E060A840B8E493A3FC
:1005EB00FAE493A3F8E493A3C8C582C8CAC583CA27
:1005FB00F0A3C8C582C8CAC583CADFE9DEE780BEDF
:0107AE00004A
:1001D300E709F608DFFA8046E709F208DFFA803E0E
:1001E30088828C83E709F0A3DFFA8032E309F608FB
:1001F300DFFA8078E309F208DFFA807088828C8363
:10020300E309F0A3DFFA806489828A83E0A3F60816
:10021300DFFA805889828A83E0A3F208DFFA804CF0
:1002230080D280FA80C680D4806980F280338010C7
:1002330080A680EA809A80A880DA80E280CA803330
:1002430089828A83ECFAE493A3C8C582C8CCC583A8
:10025300CCF0A3C8C582C8CCC583CCDFE9DEE78078
:100263000D89828A83E493A3F608DFF9ECFAA9F0F7
:10027300EDFB2289828A83ECFAE0A3C8C582C8CC4D
:10028300C583CCF0A3C8C582C8CCC583CCDFEADE66
:10029300E880DB89828A83E493A3F208DFF980CCC8
:1002A30088F0EF60010E4E60C388F0ED2402B404C1
:1002B3000050B9F582EB2402B4040050AF23234568
:0602C30082239002237368
:1002C900BC000BBE0029EF8DF084FFADF022E4CC19
:1002D900F875F008EF2FFFEE33FEEC33FCEE9DECE2
:1002E900984005FCEE9DFE0FD5F0E9E4CEFD22ED28
:1002F900F8F5F0EE8420D21CFEADF075F008EF2F72
:10030900FFED33FD4007985006D5F0F222C398FD62
:050319000FD5F0EA22FF
:10031E00C2D5EC30E709B2D5E4C39DFDE49CFCEEFA
:10032E0030E715B2D5E4C39FFFE49EFE1202C9C3A7
:10033E00E49DFDE49CFC80031202C930D507C3E4A2
:06034E009FFFE49EFE2269
:0E035400C3E49FFFE49EFEE49DFDE49CFC22BA
:10036200EB9FF5F0EA9E42F0E99D42F0EC6480C812
:0603720064809845F022B2
:00000001FF
